:020000040800F2
:10000000680E002021030008613F0008253F00081A
:100010005D3F0008E90700081D4B00083303000896
:100020000000000000000000000000001142000875
:10003000ED07000800000000653F000815420008B9
:100040003D0300083D0300083D0300083D03000890
:100050003D0300083D0300083D0300083D03000880
:100060003D0300083D0300083D0300083D03000870
:100070003D0300083D0300083D0300083D03000860
:100080003D0300083D0300083D0300083D03000850
:100090003D0300083D0300083D0300083D03000840
:1000A000F10700083D0300083D0300083D03000878
:1000B0003D0300083D0300083D0300083D03000820
:1000C0003D0300083D0300083D0300083D03000810
:1000D0003D0300083D0300083D0300083D03000800
:1000E0003D0300083D0300083D0300083D030008F0
:1000F0003D0300083D0300083D0300083D030008E0
:100100003D0300083D0300083D0300083D030008CF
:100110003D0300083D0300083D0300083D030008BF
:100120003D0300083D0300083D0300083D030008AF
:100130003D0300083D0300083D0300083D0300089F
:100140003D0300083D0300083D0300083D0300088F
:100150003D0300083D0300083D0300083D0300087F
:100160000000000000000000AD4A00083D03000848
:100170003D0300083D0300083D0300083D0300085F
:100180003D0300083D0300083D0300080000000097
:10019000000000003D030008000000000000000017
:1001A00000000000000000003D0300083D030008BF
:1001B0003D0300083D0300083D0300083D0300081F
:1001C0003D0300083D03000800000000000000009F
:1001D0000000000000000000000000003D030008D7
:1001E0003D0300083D03000800000000000000007F
:1001F0003D0300083D0300083D0300080000000027
:10020000000000003D0300083D0300083D03000816
:100210003D0300083D0300083D0300083D030008BE
:100220003D03000800000000000000003D0300083E
:100230003D03000800000000000000000000000076
:100240000000000000000000000000003D03000866
:100250003D03000800F002F800F052F814A696E8FA
:10026000000CB244B344DA4501D100F049F8BAE8D1
:100270000F000FA696E83000A5EB040504EB060777
:10028000AAEB0704A7F101074FEA15154FEA34144A
:10029000A4F10104AC4201D300F032F813F0010FD5
:1002A00018BFFB1A43F0010300F001F8DBE7184721
:1002B0002885000048850000103A24BF78C878C11E
:1002C000FAD8520724BF30C830C144BF04680C605C
:1002D000704700007047000000230024002500261E
:1002E000103A28BF78C1FBD8520728BF30C148BF99
:1002F0000B6070471FB508F0DBF91FBD10B510BDCE
:1003000000F08AF91146FFF7F5FF05F053FD00F004
:10031000A8F903B4FFF7F2FF03BC00F0AFF9000047
:100320000A4880470A480047FEE7FEE7FEE7FEE787
:10033000FEE7FEE7FEE7FEE7FEE7FEE7FEE700007A
:1003400004480549054A064B704700001942000859
:100350005502000868080020680E0020680A002086
:10036000680A002053EA020C00F069802DE9F04B86
:100370004FF00006002B1FBFB3FA83F503FA05F414
:1003800024FA05F65E4012BF1643B2FA82F502FA6D
:1003900005F4C5F120051EBF22FA05FC44EA0C0451
:1003A000203556EA044C4FEA144418BF641C4FF041
:1003B00000084FF00009904271EB030C39D300297B
:1003C00019BFB1FA81F701FA07F6B0FA80F700FA1F
:1003D00007F6C7F120071EBF20FA07FC46EA0C0605
:1003E0002037B6FBF4FCA7EB0507103F07F01F0B07
:1003F000CBF120062CFA06F60CFA0BFB44BFB346F1
:100400000026202FA4BF5E464FF0000B5BEA060CCF
:1004100008BF4FF0010B19EB0B0948EB0608ABFBCB
:10042000027C06FB02CC0BFB03CCC01B71EB0C0166
:10043000C1E70B46024641464846BDE8F08B13B57E
:10044000084318BF4FF0FF300146AFF30080BDE80E
:100450001C40704710B5431C02E010F8011B71B13D
:100460008107FAD14FF0013202C88C1A8C4314EA8A
:10047000C211F9D0C01A0A0603D0C01E10BDC01A9E
:1004800010BD0A0401D0801E10BD0902FCD0401E20
:1004900010BD032A40F2308010F0030C00F01580EC
:1004A00011F8013BBCF1020F624498BF11F801CB77
:1004B00000F8013B38BF11F8013BA2F1040298BFDC
:1004C00000F801CB38BF00F8013B11F0030300F046
:1004D0007180083AC0F0088051F8043B083A51F89E
:1004E00004CBA0E80810F5E7121D5CBF51F8043BEF
:1004F00040F8043BAFF30080D20724BF11F8013B62
:1005000011F801CB48BF11F8012B24BF00F8013BC3
:1005100000F801CB48BF00F8012B70474FF00002F4
:100520000429C0F0128010F0030C00F01B80CCF105
:10053000040CBCF1020F18BF00F8012BA8BF20F873
:10054000022BA1EB0C0100F00DB85FEAC17C24BFC7
:1005500000F8012B00F8012B48BF00F8012B704771
:100560004FF0000200B5134694469646203922BF4C
:10057000A0E80C50A0E80C50B1F12001BFF4F7AF97
:10058000090728BFA0E80C5048BF0CC05DF804EB79
:10059000890028BF40F8042B08BF704748BF20F8E7
:1005A000022B11F0804F18BF00F8012B70477047E5
:1005B0007047704710B5203AC0F00B80B1E8185072
:1005C000A0E81850B1E81850A0E81850203ABFF43D
:1005D000F5AF5FEA027C24BFB1E81850A0E81850DC
:1005E00044BF18C918C0BDE810405FEA827C24BF30
:1005F00051F8043B40F8043B08BF7047D20728BFBE
:1006000031F8023B48BF11F8012B28BF20F8023B0C
:1006100048BF00F8012B7047754600F02BF8AE4636
:1006200005006946534620F00700854618B020B5FE
:10063000FFF786FEBDE820404FF000064FF00007B0
:100640004FF000084FF0000BAC46ACE8C009ACE836
:10065000C009ACE8C009ACE8C00921F007018D462B
:10066000704710B50446AFF300802046BDE8104047
:10067000FFF74FBE00487047400000200149182096
:10068000ABBEFEE7260002007047000000281CBF3A
:100690006FF0010070472DE9F04186B040F68C40C4
:1006A000C4F202400268002442F0010202600268C3
:1006B000C4F2022402F001020192019A026801AD23
:1006C00042F0010202600268022702F00102019278
:1006D000019A02694FF0070842F400320261006992
:1006E0000E4600F400300190019804200190012092
:1006F00003902046294602970497CDF8148000F015
:10070000D5F80820CDE9010720462946CDF8148008
:1007100000F0CCF840F24830C2F20000314603F05D
:1007200003FC002818BF6FF0030006B0BDE8F0819D
:100730007047000000EB400040F2DC31C2F20001E3
:1007400001EB800000F076B810B586B040F68C4220
:10075000C4F202421368044643F0040313601268B3
:1007600002F00400019001984FF40050019040F60F
:1007700000004FF00202C4F202200392049239B347
:100780000021C1F21101029101A900F08FF804EBE0
:10079000440040F2DC31C2F2000101EB80040D2183
:1007A000C0F20061204600F03FF840F2E1722046BE
:1007B000C0F60002002100F067F818200F21002287
:1007C00000F0E0F9182000F0CBF9002006B010BDD1
:1007D0000021029101A900F069F8002006B010BDC7
:1007E0000020FFF7A5BF0000FEE7000070470000F3
:1007F0000020FFF79FBF000072B600BFFEE70000B9
:10080000B0B5044600F01CF9054640F20000C2F203
:1008100000000078611C18BF044400BF00F010F90C
:10082000401BA042FAD3B0BD00280EBF01200160DA
:1008300000207047F0B581B004460068082202EA43
:10084000503542F20C07C4F2024700F01F010120AC
:1008500057F8252000FA01F6164205D047F8256022
:100860006068002818BF8047381D50F825103142B5
:1008700008D040F82560A06820B101B0BDE8F04084
:10088000004700BF01B0F0BD022906D0012909D000
:1008900000291CBF012070474260082142500020FF
:1008A000704700BF04214250002070470A68002AA8
:1008B00008BF70472DE9F04F83B000F1200301938A
:1008C00047F67F73C0F22F0303EA90234FF0000A2C
:1008D0004FF0010B00274FF0000C002500930BE0B8
:1008E0000A68013532FA05F30CF1040C07F102072E
:1008F0000AF1080A00F09A800BFA05F912EA0902D7
:10090000EED0D1F80480029248F01006122E1BD1CE
:100910006FF0030202EA5506DDF804B00CF01C0289
:100920005BF80640D1F810800F2303FA02FE08F0AE
:100930000F0324EA0E0403FA02F222434BF80620C6
:10094000D1F804804FF0010B02680323BB4008F08C
:10095000030EDC439A430EFA07F31A43B8F1120F61
:1009600002605BD80BFA08F212F0061F56D08368BB
:10097000D1E902262340BE403343836043684FEAF7
:10098000181623EA0903AE4033434360C368BA40F4
:1009900023401A43C260029C5FEAC802A0D542F21B
:1009A000000E25F00302C4F2024E7244D2F86080B9
:1009B0000AF018060F23B34028EA0308009B03FA45
:1009C00006F648EA06031366DEF800804B6848EA3C
:1009D0000406DA0258BF28EA0406CEF80060DEF802
:1009E00004809A0248EA040658BF28EA0406CEF8B2
:1009F0000460DEF884809A0348EA040658BF28EAB7
:100A00000406CEF88460DEF88020DB0342EA0406A8
:100A100058BF22EA0406CEF8806061E78A68BEF11A
:100A2000030F08BF012AB1D1B5E700BF03B0BDE88D
:100A3000F04F70471823002A08BF2823C150704781
:100A400040F26070C2F200000068704740F200009F
:100A500040F26071C2F20000C2F2000100780A6840
:100A6000104408607047000080B5032000F0B6F81D
:100A700002F000F940F62041C4F20241096848F250
:100A8000CC6201F00F01C0F60002515CC84040F298
:100A90002401C2F200010860042003F0A9F90F202C
:100AA00000F008F800281CBF012080BD00F056F8B7
:100AB000002080BDB0B540F20005C2F200052978E3
:100AC000E1B304464EF21000CEF200000068400789
:100AD00010D403F0DBF9022824D001281AD078BB07
:100AE00040F22400C2F20000006829784FF4FA5264
:100AF00007E000BF40F22400C2F2000000684FF49B
:100B00007A72B2FBF1F1B0FBF1F003F0ADF9A8B9E4
:100B10001BE000BF28784FF47A71B1FBF0F04FF47E
:100B2000FA4106E028784FF47A71B1FBF0F04FF407
:100B30000041B1FBF0F003F097F930B10120B0BDF6
:100B4000002003F091F90028F8D14FF0FF30214642
:100B5000002200F017F800206C60B0BD7047000064
:100B6000002848BF704700F01F010122C0F34A105F
:100B700002FA01F14EF20012CEF2000242F8201009
:100B80007047000010B54EF60C5CCEF2000CDCF89D
:100B90000030C3F3022E8EF00704042C28BF042477
:100BA000BEF103034FF0FF3E38BF00230EFA04F4FA
:100BB000A14399400EFA03F39A43114300F00F0248
:100BC00000F160430901043A03F5644362440028DC
:100BD00048BF02F10C03197010BD00004EF60C5115
:100BE000CEF200010A684FF6FF031A4060F30A22B2
:100BF00042F0806040F0FD7008607047012201689B
:100C0000C0F8D822002280F8CC22486D40F00100C4
:100C10004865486D40F0020200204A6570470000B8
:100C2000002804BF01207047F0B581B0044690F859
:100C3000950228B9002084F89402204600F01CF99F
:100C4000032084F89502206803F04CFF94E80F001D
:100C5000267C009603F01AFF002840F0F4802068FC
:100C6000002103F049FF002840F0ED8094F804E0F3
:100C7000BEF1000F00F0E0800EF0030CBEF1040F97
:100C80004FF0000238D30EF0FC03A4F1A0000321C2
:100C9000012500BFCE1E80F8B4608E1E80F8DC6097
:100CA0004E1E80F8046180F82C110E1D013180F871
:100CB000B55080F8B720C0E93122C0F8CC2080F8C8
:100CC000DD5080F8DF20C0E93B22C0F8F42080F836
:100CD000055180F80721C0E94522C0F81C2180F8A1
:100CE0002D5180F82F21C0E94F22C0F84421A030B7
:100CF00099423146CED1F21EBCF1000F2ED002EB4C
:100D0000820104F1140000EBC105012300F8312039
:100D10000021BCF1010F6B70E970C5E90411A961F4
:100D20001CD0551C05EB8506BCF1020F00EBC60775
:100D300000F836507B70F970C7E90411B9610DD025
:100D4000911C01EB8102012500EBC20300F8321077
:100D500000205D70D870C3E904009861BEF1000FF7
:100D60006AD0BEF1040F4FF0000235D30EF0FC0044
:100D700003212346CF1E83F854718F1E83F87C71A4
:100D80004F1E83F8CC110D1D013183F8552183F8D6
:100D90005721C3E95922C3F86C2183F87D2183F8D8
:100DA0007F21C3E96322C3F8942183F8A52183F846
:100DB000A47183F8A721C3E96D22C3F8BC2183F88D
:100DC000CD2183F8CF21C3E97722C3F8E421A033F2
:100DD00081422946CED1EA1EBCF1000F2CD002EB95
:100DE000820304F5AA7000EBC3070021BCF1010FD8
:100DF000797000F83320F970C7E90411B9611BD08C
:100E0000531C03EB8307BCF1020F00EBC70600F88D
:100E100037307170F170C6E90411B1610CD0911CCA
:100E200001EB8102002700EBC20300F832105F7073
:100E3000DF70C3E904779F6194E80F00277C009777
:100E400003F040FE30B1022084F89502012001B089
:100E5000F0BD00BF00206074012084F89502207B63
:100E6000012804BF2046FFF7C9FE206803F022FED8
:100E7000002001B0F0BD000010B5B6B0044602A8D5
:100E80000830C821FFF76CFB206846F20001C4F26D
:100E90000101884202D036B010BD00BF102003907F
:100EA000002002903020339002A801F00BF80028B7
:100EB00018BFFFF7A1FC00F017F840F6A440C4F2F9
:100EC00002400168002241F0807101600068002149
:100ED00000F08070019001984A20FFF753FE4A20ED
:100EE000FFF73EFE36B010BD40F63800C4F20240B7
:100EF000016841F0007101607047000010B540F6D4
:100F0000284CC4F2024CDCF80CE0DCF80010DCF8F1
:100F10000020C2F30523DCF80020DCF81040DBB32E
:100F2000E408D20604EAE27201F003016FF35F32D3
:100F300000EE102A0329B8EE400A6FF35F2E37D077
:100F400002292FD001295CF8281C49F20002C1F3C4
:100F5000C101C0F2D03222FA01F101EE101A02EE04
:100F6000103AB8EE411AB8EE422A9FED4F3A81EEA0
:100F7000021A02EE10EA20EE030AB8EE422A30EE20
:100F8000020AB7EE002A30EE022A5CF8281C22EE94
:100F9000010A89012CD527E00021C0E900118160F8
:100FA00010BD00BF01EE103A9FED402A04E000BFE3
:100FB00001EE103A9FED3B2AB8EE411A82EE012A6B
:100FC00001EE10EA9FED383AB8EE411A20EE030A1E
:100FD00030EE010AB7EE001A30EE011A5CF8281C58
:100FE00022EE010A890103D5DCF80010C90307D4F9
:100FF000002101605CF8281C890118D41BE000BFA7
:10100000DCF80C10B7EE002AC1F3462101EE101AED
:10101000B8EE411A31EE021A80EE011ABCEEC11A86
:1010200011EE101A01605CF8281C890103D5DCF868
:101030000010890302D4002112E000BFDCF80C107C
:10104000B7EE002AC1F3064101EE101AB8EE411ABC
:1010500031EE021A80EE011ABCEEC11A11EE101A1E
:1010600041605CF8281C890144BFDCF800105FEA8D
:10107000413103D40021816010BD00BFDCF80C10A9
:10108000B7EE002AC1F3066101EE101AB8EE411A5C
:1010900031EE021A80EE010ABCEEC00A10EE101A00
:1010A000816010BD20BCBE4B000000390024744A92
:1010B00010B540F62C4CC4F2024CDCF810E0DCF821
:1010C0000010DCF80020C2F30523DCF80020DCF877
:1010D0001440DBB3E408D20604EAE27201F0030133
:1010E0006FF35F3200EE102A0329B8EE400A6FF367
:1010F0005F2E37D002292FD001295CF82C1C49F231
:101100000002C1F3C101C0F2D03222FA01F101EEB6
:10111000101A02EE103AB8EE411AB8EE422A9FEDCC
:101120004F3A81EE021A02EE10EA20EE030AB8EE00
:10113000422A30EE020AB7EE002A30EE022A5CF8AC
:101140002C1C22EE010A09012CD527E00021C0E960
:101150000011816010BD00BF01EE103A9FED402AE2
:1011600004E000BF01EE103A9FED3B2AB8EE411AB1
:1011700082EE012A01EE10EA9FED383AB8EE411AEC
:1011800020EE030A30EE010AB7EE001A30EE011A23
:101190005CF82C1C22EE010A090103D5DCF80010D2
:1011A000C90307D4002101605CF82C1C090118D484
:1011B0001BE000BFDCF81010B7EE002AC1F3462197
:1011C00001EE101AB8EE411A31EE021A80EE011A41
:1011D000BCEEC11A11EE101A01605CF82C1C09015A
:1011E00003D5DCF80010890302D4002112E000BF0F
:1011F000DCF81010B7EE002AC1F3064101EE101A18
:10120000B8EE411A31EE021A80EE011ABCEEC11A94
:1012100011EE101A41605CF82C1C090144BFDCF887
:1012200000105FEA413103D40021816010BD00BF8E
:10123000DCF81010B7EE002AC1F3066101EE101AB7
:10124000B8EE411A31EE021A80EE010ABCEEC00A75
:1012500010EE101A816010BD20BCBE4B000000399A
:101260000024744A10B540F6304CC4F2024CDCF84D
:1012700014E0DCF80010DCF80020C2F30523DCF8F1
:101280000020DCF81840DBB3E408D20604EAE2727E
:1012900001F003016FF35F3200EE102A0329B8EE6C
:1012A000400A6FF35F2E37D002292FD001295CF856
:1012B000301C49F20002C1F3C101C0F2D03222FA5F
:1012C00001F101EE101A02EE103AB8EE411AB8EE32
:1012D000422A9FED4F3A81EE021A02EE10EA20EE0A
:1012E000030AB8EE422A30EE020AB7EE002A30EEC8
:1012F000022A5CF8301C22EE010A89002CD527E076
:101300000021C0E90011816010BD00BF01EE103A5C
:101310009FED402A04E000BF01EE103A9FED3B2A0A
:10132000B8EE411A82EE012A01EE10EA9FED383A3A
:10133000B8EE411A20EE030A30EE010AB7EE001AA9
:1013400030EE011A5CF8301C22EE010A890003D548
:10135000DCF80010C90307D4002101605CF8301CE0
:10136000890018D41BE000BFDCF81410B7EE002A87
:10137000C1F3462101EE101AB8EE411A31EE021AFD
:1013800080EE011ABCEEC11A11EE101A01605CF871
:10139000301C890003D5DCF80010890302D4002139
:1013A00012E000BFDCF81410B7EE002AC1F30641CA
:1013B00001EE101AB8EE411A31EE021A80EE011A4F
:1013C000BCEEC11A11EE101A41605CF8301C8900A5
:1013D00044BFDCF800105FEA413103D40021816092
:1013E00010BD00BFDCF81410B7EE002AC1F306618F
:1013F00001EE101AB8EE411A31EE021A80EE010A1F
:10140000BCEEC00A10EE101A816010BD20BCBE4BAD
:10141000000000390024744A80B584B04FF6FF7391
:101420000246C0F23F0300209B1A70EB0103C0F29A
:10143000618041F6FF739B1A70EB0103C0F290804C
:10144000B2F1010E61F1000CDEF11F034FF0000359
:1014500073EB0C03C0F0CE81DFE81EF02000A60283
:101460009A03EA019A039A039A0346029A039A039B
:101470009A039A039A039A039A0376029A039A03A9
:101480009A039A039A039A039A039A039A039A0374
:101490009A039A039A039A039A03160240F60040AD
:1014A000C4F20240D0F8D81011F0070100F0008417
:1014B0000268012903D112F0006240F01D84026825
:1014C000022903D112F0005240F0D383036802686E
:1014D000032903D113F0020340F0A984042903D1A6
:1014E00012F4007240F0D584D0F8F000052900F025
:1014F00063BC00BF6FF040439B1A70EB01036FDACF
:10150000072940F3CD80B1F5007F80F2218181F081
:101510000803134300F0EC8281F01001114340F006
:10152000378340F60040C4F20240D0F8E41001F0E6
:101530003001102900F0DA830268202903D112F06B
:10154000005240F09683006810F400501CBF46F62D
:101550000040C0F2DC20302918BF002018E300BF93
:101560004FF6FF739B1A4FF0000C7CEB010380F2E7
:10157000BB804FF6FF73C0F203039B1A7CEB0103A1
:10158000C0F2028182F480330B4300F0E58282F4E2
:101590000032114340F0FC8240F60040C4F20240A9
:1015A000D0F8DC10C1F30221052900F2AB83DFE89B
:1015B00011F0390105037903CD03C303070000BF10
:1015C000D0F8E810036802689B0701F0404102D59B
:1015D000002900F02C84920500F1368400F037BC1D
:1015E0006FF078439B1A4FF000038B4124DB82F4A9
:1015F00080030B4300F0568282F000730B4300F02F
:10160000F98182F08062114340F0C28240F60040CE
:10161000C4F20240D0F8E810026801F030019204F0
:1016200040F14C83002940F0498346F60040C0F267
:10163000DC2004B080BD00BF82F000630B4300F0EB
:101640003B8282F080530B4300F0068282F000520E
:10165000114340F09D8240F60041C4F20241D1F8AE
:10166000E000C0F38212042A00F24C8348F200002A
:10167000C0F2BB00DFE812F03A03A20236028C028D
:10168000060000BFD1F8E8200B6808689B0702F04D
:10169000404240F10282002A00F0A083FDE100BF39
:1016A00082F080430B4300F0CB8281F002031343AE
:1016B00000F08A8281F00401114340F0698240F613
:1016C0000040C4F20240D0F8E8100068800301F442
:1016D000407040F10583002840F0028347F6400047
:1016E000C0F27D1004B080BD82F400530B4300F0C3
:1016F000C78282F480430B4300F07E8282F4004272
:10170000114340F0458240F60040C4F20240D0F858
:10171000E41001F44011B1F5801F00F0C3820029EC
:1017200000F0808002680068B1F5001F03D112F05C
:10173000020240F0538310F400701CBF40F600100A
:10174000C0F23D00B1F5401F18BF002004B080BDBD
:1017500081F40073134300F0E78181F48051114359
:1017600040F0168240F60041C4F20241D1F8E40094
:1017700000F04060B0F1806F00F09482002851D0FA
:101780000A68B0F1006FF9E182F480230B4300F0A6
:10179000018282F40012114340F0FA8140F60040C9
:1017A000C4F20240D0F8E81001F00701022900F06D
:1017B0001D82012900F0DC82002900F011820268FC
:1017C000032902D112F4003288D10268006804298A
:1017D00003D112F0020240F0018310F400701CBF2C
:1017E00040F60010C0F23D00052918BF002004B0EB
:1017F00080BD00BF82F48052114340F0C98140F6A1
:101800000040C4F20240D0F8E01001F0E061B1F114
:10181000007F00F02E82B1F1807F00F06D82002900
:1018200040F0B88204B0BDE8804001F0FFB900BFCD
:1018300040F60040C4F20240D0F8D81011F4E07134
:1018400000F02A820268402903D112F0006240F0C1
:1018500053820268802903D112F0005240F00982BD
:1018600003680268C02903D113F0020340F0DF824D
:10187000B1F5807F03D112F4007240F00A83D0F8F2
:10188000F000B1F5A07F97E240F60040C4F20240BC
:10189000D0F8D81011F4603100F0FE810268B1F583
:1018A000004F03D112F0006240F026820268B1F5C9
:1018B000803F03D112F0005240F0DB8103680268E0
:1018C000B1F5C03F03D113F0020340F0B082B1F58F
:1018D000003F03D112F4007240F0DB82D0F8F00038
:1018E000B1F5203F68E200BF40F60040C4F202407C
:1018F000D0F8D81011F4606100F0CE810268B1F523
:10190000007F03D112F0006240F0F6810268B1F569
:10191000806F03D112F0005240F0AB81036802687F
:10192000B1F5C06F03D113F0020340F08082B1F52E
:10193000006F03D112F4007240F0AB82D0F8F000D7
:10194000B1F5206F38E200BF40F60040C4F202401B
:10195000D0F8D81011F4E04100F09E810268B1F592
:10196000805F03D112F0006240F0C6810268B1F5D9
:10197000005F03D112F0005240F07B8103680268DF
:10198000B1F5405F03D113F0020340F05082B1F58E
:10199000804F03D112F4007240F07B82D0F8F00047
:1019A000B1F5A04F08E200BF40F60040C4F202408B
:1019B000D0F8D81011F0380100F06E8102680829C3
:1019C00003D112F0006240F09781102900F051819C
:1019D00003680268182903D113F0020340F027823C
:1019E000202903D112F4007240F05382D0F8F000A5
:1019F0002829E1E140F60041C4F20241D1F8F000AB
:101A0000D1F8F020920700F4407203D5B2F5807F40
:101A100000F06181D1F8F000000103D5B2F5007F3C
:101A200000F07D80086880034FF0000040F1B08036
:101A3000B2F5407F40F0AC80C86910F4785F00F0E8
:101A40006181C86947F64001C0F30520C0F27D11ED
:101A5000B1FBF0F004B080BD40F60041C4F2024199
:101A6000D1F8E000C0F3C202042A00F24B8148F230
:101A70000000C0F2BB00DFE812F03901A100350020
:101A80008B000500D1F8E8200B6808689B0702F07E
:101A9000404202D5002A00F0A181800500F1F681C4
:101AA000FEE100BF40F60040C4F20240D0F8E4007E
:101AB000400640F11B8199E040F60041C4F202412A
:101AC000D1F8E00000F00702042A00F21B8148F27E
:101AD0000000C0F2BB00DFE812F009017100050050
:101AE0005B00770101A8FFF7BDFB019804B080BD42
:101AF00040F60040C4F20240D0F8E810D0F8F020E0
:101B000001F0C001920702D5002900F0E480D0F86E
:101B1000F020120140F12281402940F01F814FF452
:101B2000FA4004B080BD00BF40F60041C4F202415B
:101B3000D1F8E800D1F8F02000F00800920702D5B3
:101B4000002800F0C880D1F8F010002818BF4FF42A
:101B5000FA4001F00061AFE140F60041C4F20241F9
:101B6000D1F8E40000F04070B0F1807F00F09A807E
:101B7000002800F091800A68B0F1007F4FF000006B
:101B800006D112F0020203D00868C0F3C10050E190
:101B900004B080BD40F60040C4F20240D0F8DC1032
:101BA000C1F30231052900F2AD80DFE811F07500C4
:101BB00007007B00CF00C500370100BF01A8FFF779
:101BC00077FA019804B080BD40F60040C4F20240AC
:101BD000D0F8E41001F00301DFE801F0028808D03A
:101BE00004B0BDE8804000F0C1BF00BF01A8FFF70E
:101BF0005FFA039804B080BD40F60040C4F2024092
:101C0000D0F8E41001F44021B1F5802F4AD000292A
:101C100042D002680068B1F5002F03D112F0020231
:101C200040F0DC8010F400701CBF40F60010C0F2E1
:101C30003D00B1F5402F18BF002004B080BD00BFAB
:101C400040F60040C4F20240D0F8E01011F46061A8
:101C50002ED00268B1F5007F02D112F000624BD1A4
:101C60000268B1F5806F40F0BD8012F0005200F0C4
:101C7000B98001A8FFF7F6FA029804B080BD00BF52
:101C800040F60040C4F20240D0F8E41001F44031C4
:101C9000B1F5803F06D0C9BB04B0BDE8804000F07C
:101CA0007DBF00BF01A8FFF7DDFA039804B080BD37
:101CB00004B0BDE8804000F095BF00BF026892010B
:101CC00001D5102912D0D0F8F020920740F1CC8035
:101CD000202940F0C9804FF4004004B080BD00BF0F
:101CE000B0F5007F08D0B0F5807F0BD101A8FFF7D9
:101CF00005F9029804B080BD01A8FFF7D9F9029850
:101D000004B080BD002004B080BD00BF0268006840
:101D1000B1F5003F02D112F002025FD110F4007061
:101D20001CBF40F60010C0F23D00B1F5403F18BFA7
:101D3000002004B080BD00BFD0F8F0004FF4FA419D
:101D4000000101EAE07004B080BD00BFD0F8F000EF
:101D50004FF4004101EA803004B080BD0068802962
:101D600000F400724FF0000008BF48F2120085E056
:101D700004B0BDE8804000F07DBF00BFD0F8E8109F
:101D8000036802689B0701F040415BD500294ED0F3
:101D900058E000BF03680268B1F1407F02D113F040
:101DA000020344D1B1F1806F02D112F4007270D1FC
:101DB000D0F8F000B1F1A06F00F002024FF0000087
:101DC00008BF900304B080BDD1F8E8200B68086814
:101DD0009B0702F0404257D5002A55D1C0F3C100FD
:101DE00027E000BF03680268B1F5C06F02D113F0AD
:101DF00002031CD1B1F5006F02D112F4007248D178
:101E0000006810F400301CBF47F64000C0F27D109F
:101E1000B1F5206F18BF002004B080BDD0F8E810E5
:101E2000036802689B0701F040410BD551B9C2F32A
:101E3000C10049F20001C0F2D03121FA00F004B033
:101E400080BD00BF920502D5B1F1804F21D000685E
:101E5000B1F1004F00F400324FF0000004BF47F62C
:101E60004000C0F27D1009E0D0F8F000302900F009
:101E700000624FF0000008BF4FF4FA40002A08BF8C
:101E8000104604B080BD00BF800509D5B2F1804F77
:101E900006D140F60010C0F23D0004B080BD00BF86
:101EA0000868B2F1004F00F400314FF0000004BFA9
:101EB00047F64000C0F27D10002908BF084604B074
:101EC00080BD00002DE9F0470446006840F6284830
:101ED000C101C4F2024807D5D8F8C010A26D21F0A4
:101EE00040411143C8F8C010C00712D0E06D05286A
:101EF00000F25482DFE810F00600B404EA010600A4
:101F000006000600D8F8B01021F007010843C8F811
:101F1000B00000252078800702D428461BE000BFCF
:101F2000206E4FEAF001052900F23A822846DFE8E8
:101F300011F00700A304D70107000700070000BF46
:101F4000064648B9D8F8B000216E20F038000843A2
:101F5000C8F8B00000202E462178490719D5616ED7
:101F60004FEAB111052900F22382DFE811F00700E2
:101F70008B04BF0107000700070000BF054648B9F2
:101F8000D8F8B000616E20F4E0700843C8F8B000E3
:101F9000002035462178090719D5A16E4FEA712135
:101FA000052900F20D82DFE811F007007304A70194
:101FB00007000700070000BF064648B9D8F8B00080
:101FC000A16E20F460600843C8F8B00000202E46DF
:101FD0002178C90619D5E16E4FEA3131052900F2A1
:101FE000F781DFE811F007005B048F0107000700AD
:101FF000070000BF054648B9D8F8B000E16E20F4EC
:10200000E0400843C8F8B000002035462178890632
:1020100019D5216F4FEAF131052900F2E181DFE89E
:1020200011F007004304770107000700070000BF15
:10203000064648B9D8F8B000216F20F46030084354
:10204000C8F8B00000202E466178C90619D5616F26
:102050004FEA3161052900F2CB81DFE811F007007A
:102060002B045F0107000700070000BF054648B9C1
:10207000D8F8B800616F20F0E0600843C8F8B800F5
:1020800000203546617889061AD5A16F6FF00102EC
:1020900002EB3142022A08D34FEA314129B101292A
:1020A0002ED104F1300001F0D5FF064648B9D8F82A
:1020B000BC00A16F20F440300843C8F8BC000020E9
:1020C0002E466178490620D5E16F6FF0010202EBE0
:1020D000B142022A08D34FEAB14129B1012937D1CF
:1020E00004F1300001F0B6FF054678B9D8F8BC001D
:1020F000E16F20F440200843C8F8BC00002004E051
:102100000120012661784906DED43546617809064A
:1021100023D5D4F880106FF0010202EB3152022A6D
:1021200008D34FEA315129B1012939D104F13000E6
:1021300001F090FF064688B9D8F8BC00D4F88010AA
:1021400020F440100843C8F8BC00002005E000BFA0
:102150000120012561780906DBD42E46A178C90744
:1021600023D0D4F88410002918BFB1F1007F0DD11D
:102170000746D8B9D8F8BC00D4F8841020F04070D5
:102180000843C8F8BC0000200FE000BFB1F1807F19
:1021900030D104F1300001F05DFF074630B9E9E7C6
:1021A00001200126A178C907DBD137466179C9062C
:1021B00025D5D4F88810002918BFB1F1006F0DD1D2
:1021C0000546E8B9D8F8BC00D4F8881020F0406083
:1021D0000843C8F8BC00002011E000BFB1F1806FD7
:1021E00040F0708004F1300001F034FF054638B94A
:1021F000E8E700BF012001276179C906D9D43D462F
:10220000D4E9001240F61C47C4F20247120508D573
:102210003A6822F400423A60D4F8C8203B681A4376
:102220003A6089031AD5D4F88C104FEA3121052978
:1022300000F2E680DFE811F00600440378000600B3
:1022400006000600064650B9D8F8B400D4F88C1041
:1022500020F4E0600843C8F8B40000202E46A178BE
:1022600049071BD5D4F890104FEA3131052900F207
:10227000CF80DFE811F007002B035F0007000700A5
:10228000070000BF054650B9D8F8B400D4F8901044
:1022900020F4E0400843C8F8B40000203546A17897
:1022A00089065ED5D4F8A010052900F2B98002296C
:1022B00046D0002802464AD0D4E900139B0555D4E5
:1022C000B4E000BF012001259AE700BF04F130000F
:1022D00001F0C0FE054600287FF41CAEC8E200BF36
:1022E00004F1300001F0B6FE2AE600BF04F1300030
:1022F00001F0B0FE42E600BF04F1300001F0AAFE9A
:102300005AE600BF04F1300001F0A4FE72E600BFFF
:1023100004F1300001F09EFE8AE600BF04F13000B7
:1023200001F098FEA2E600BF04F1300001F092FE39
:1023300088E700BF04F1300001F08CFEA2E700BF87
:1023400004F1080001F010FE00280246B4D1D8F8CC
:10235000C000D4F8A01020F007000843C8F8C0005F
:1023600000202A46D4E900139B055FD5D4F8A43099
:1023700043F00806082E0BD1814660B9D8F8C0009A
:1023800020F008001843C8F8C00000204EE000BF4D
:1023900001204FF0010989014BD4A6E00125B9E5E0
:1023A00001200126217849073FF5D9ADF1E500BFAD
:1023B00001200125217809073FF5EFAD07E600BFB1
:1023C000012001262178C9063FF505AE1DE600BFB4
:1023D00001200125217889063FF51BAE33E600BFB9
:1023E000012001266178C9063FF531AE49E600BFFC
:1023F00001200125617889063FF547AE60E600BF00
:1024000001200126A17849073FF52CAF46E700BF20
:1024100001200125A17889063FF544AFA1E700BF5F
:1024200001200122D4E900139B059FD49146890124
:102430005BD54FF60846CFF6FF768246B85940F096
:102440000100B851FEF7FCFA054600BFB859C007B5
:1024500008D1FEF7F5FA401B0228F7D90320032123
:1024600044E000BF5046BAF1000F51463ED1D8F8C3
:10247000C80010F4407018D0D4F8BC10884211D0B5
:10248000D8F8C800D8F8C81020F4407041F4803162
:10249000C8F8C810D8F8C81021F48031C8F8C8109E
:1024A000C8F8C800C00740F01D82D4F8BC003968E5
:1024B0004FF6CF7300F4407221F47C51C0F2FF0359
:1024C00003EA1013B2F5407F08BF19433960D8F80A
:1024D000C8106FF31F3021F44071C8F8C810D8F845
:1024E000C8100843C8F8C8000020494622685301B4
:1024F0001CD5D4F898306FF0010707EB3317022F83
:102500000AD34FEA33173FB1012F17D1D8F8007023
:1025100047F40037C8F80070054640B9D8F8C00045
:1025200020F030001843C8F8C00000200D465102CA
:1025300008D42E46E178090714D451E00120012582
:102540005102F6D5D4F89C10402921D091BBD8F87F
:10255000001041F40031C8F800100646F8B1E178E7
:1025600009073DD5D4F8AC10042900F25F81DFE8FB
:1025700011F005003F0127002B002B00D8F80010B8
:1025800041F40031C8F80010054650BB1EE000BF02
:1025900004F1080001F0E8FC00280646DFD1D8F875
:1025A000BC00D4F89C1020F040000843C8F8BC00E0
:1025B0000020BEE701200126E1780907D2D40FE010
:1025C00004F1300001F046FD054650B9D8F8B800D6
:1025D000D4F8AC1020F007000843C8F8B800002079
:1025E0003546E178C90627D5D4F8B0104FEAF10195
:1025F000042900F21F81DFE811F0050005010F003A
:1026000013001300D8F8001041F40031C8F800108E
:10261000064690B906E000BF04F1300001F01AFD53
:10262000064650B9D8F8B800D4F8B01020F03800F9
:102630000843C8F8B80000202E46E178890627D55F
:10264000D4F8B4104FEAB111042900F2F780DFE8A2
:1026500011F00500E3000F0013001300D8F800107C
:1026600041F40031C8F80010054690B906E000BFFB
:1026700004F1300001F0EEFC054650B9D8F8B8007E
:10268000D4F8B41020F4E0700843C8F8B800002073
:102690003546E17849061BD5D4F8B8104FEA7121C8
:1026A000052900F2D580DFE811F007001701CD0001
:1026B00007000700070000BF064650B9D8F8B80069
:1026C000D4F8B81020F460600843C8F8B8000020BF
:1026D0002E46217989071BD5D4F8A810032900F2CA
:1026E0008380DFE801F00903770900BFD8F8001004
:1026F00041F40031C8F80010054650B9D8F8BC00C4
:10270000D4F8A81020F003000843C8F8BC0000204B
:1027100035462179490721D5D4F8941059B1B1F53E
:10272000007F0BD0B1F5807F3CD1D8F8001041F488
:102730000031C8F80010064688B905E004F1080029
:1027400001F012FC064650B9D8F8C000D4F8941035
:1027500020F440700843C8F8C00000202E462179BC
:10276000C90624D5D4F8C410302909D0202909D0AD
:1027700010292DD1D8F8001041F40031C8F800100C
:10278000B0B904E004F1300001F064FC80B9D8F87D
:10279000BC00D4F8C41020F030000843C8F8BC00D6
:1027A00005E000BF012001262179C906DAD43046B0
:1027B0002179090758BFBDE8F087D8F8C010D4F8D0
:1027C000C02021F0C0011143C8F8C010BDE8F08757
:1027D0000120EDE704F1080001F0C6FB00280546E2
:1027E0007FF497AF8AE700BF0120012591E700BF82
:1027F00004F1080001F0B8FB002805467FF4F1AEB3
:10280000E4E600BF04F1080001F0AEFB0028064634
:102810007FF413AF06E700BF04F1080001F0A4FB4A
:10282000002805467FF435AF28E700BF01200125C9
:10283000D7E600BF01200126FFE600BF01200125E9
:1028400027E700BF04F1300001F004FC34E700BFCB
:1028500001200126217989073FF53EAF58E700BFE7
:1028600004F1080001F080FB054600287FF452AB1C
:10287000E06DFFF747BB00BF04F1080001F074FBF7
:10288000FFF75EBB04F1080001F06EFBFFF776BBBB
:1028900004F1080001F068FBFFF78EBB04F10800AB
:1028A00001F062FBFFF7A6BB04F1080001F05CFB3E
:1028B000FFF7BEBB04F1080001F056FBFFF7D6BBE3
:1028C00004F1080001F050FBFFF7BCBC04F1080064
:1028D00001F04AFBD6E400BF04F1080001F044FB1C
:1028E000EAE600BFFEF7ACF8054641F2883600BFC5
:1028F000D8F8C80080073FF5D8ADFEF7A1F8411B16
:102900000320B1424FF00301F2D9EFE52DE9F04386
:1029100081B0002800F0D08042F20008C4F2020822
:102920000446D8F800000D4600F00F0088420DD292
:10293000D8F8000020F00F002843C8F80000D8F8AD
:10294000000000F00F00A84240F0B680206840F67A
:102950002047C106C4F202470CD561693A6870236A
:1029600003EA1222914205D93A6822F4E04242EA8F
:102970000121396001070CD521693A68702303EA07
:102980001212914205D93A6822F4E06242EA01113A
:10299000396041070AD5E1683A6802F07002914255
:1029A00004D93A6822F070021143396081070AD5D0
:1029B000A1683A6802F00F02914204D93A6822F005
:1029C0000F0211433960C00768D1206881070AD51A
:1029D000A1683A6802F00F02914204D23A6822F0EC
:1029E0000F0211433960D8F8001001F00F01A9421D
:1029F0000CD9D8F8001021F00F012943C8F80010B5
:102A0000D8F8001001F00F01A94255D141070AD5AD
:102A1000E1683A6802F07002914204D23A6822F00A
:102A200070021143396001070CD521693A6870239F
:102A300003EA1212914205D23A6822F4E06242EAB5
:102A400001113960C0060CD560693968702202EA4C
:102A50001121884205D2396821F4E04141EA002081
:102A6000386000F007F9396848F2CC6201F00F01D4
:102A7000C0F60002525C40F20401C2F20001096893
:102A800040F2240320FA02F2C2F2000308461A6060
:102A900001B0BDE8F043FEF70DB800BF606857F81D
:102AA000201C01280CD0022804D003285AD1890107
:102AB00002D507E0890305D4012001B0BDE8F08309
:102AC0008905F9D557F8041C21F00301084347F89C
:102AD000040CFDF7B5FF61680646032941F2883909
:102AE00039D0022929D0012910D100BF57F8040C90
:102AF00000F0180008283FF468AFFDF7A1FF801B25
:102B000048454FF00300F1D90DE000BF57F8040C21
:102B100010F0180F3FF459AFFDF792FF801B4845A6
:102B20004FF00300F2D901B0BDE8F083FDF788FF54
:102B3000801B48454FF00300F5D857F8040C00F00F
:102B400018001028F2D140E7FDF77AFF801B4845B6
:102B50004FF00300E7D857F8040C00F018001828CD
:102B6000F2D132E78907A7D5ACE7000080B500F0C5
:102B700081F840F62041C4F20241096848F2CC6273
:102B800001F00F01C0F60002515C01F01F01C840C6
:102B900040F22401C2F20001086080BD80B500F05F
:102BA00069F840F62041C4F202410A6848F2CC6359
:102BB00002F00F02C0F600039A5C02F01F02D04040
:102BC00040F22402C2F200021060096848F2DC629E
:102BD000C1F30211C0F60002515C01F01F01C840B0
:102BE00080BD000080B500F045F840F62041C4F2F9
:102BF00002410A6848F2CC6302F00F02C0F60003FB
:102C00009A5C02F01F02D04040F22402C2F200029D
:102C10001060096848F2DC62C1F30221C0F60002CC
:102C2000515C01F01F01C84080BD000080B500F07C
:102C300021F840F62041C4F202410A6848F2CC6310
:102C400002F00F02C0F600039A5C02F01F02D040AF
:102C500040F22402C2F200021060096848F2DC620D
:102C6000C1F30231C0F60002515C01F01F01C840FF
:102C700080BD000080B540F60041C4F20241C86941
:102C800000F01800082802BF40F60010C0F23D0016
:102C900080BDC86910F0180F34D0C86900F0180062
:102CA000102802BF47F64000C0F27D1080BDC86901
:102CB00000F01800182849F20000C0F2D03066D1A8
:102CC000D1F828E08A6AC2F3052C8A6A8B6BBCF1C2
:102CD000000F04BF002080BDDB08D20603EAE272C9
:102CE0006FF35F3200EE102A0EF00302B8EE400AD6
:102CF000032A15D0012A17D10A68920618D49FED2D
:102D0000251A1DE00868800649F20000C0F2D030A4
:102D100058BF80BD0968C1F3C101C84080BD00BF74
:102D20009FED1B1A0CE000BF9FED1B1A08E000BFCF
:102D30000A68C2F3C102D04001EE100AB8EE411A8F
:102D400002EE10CA486BB8EE422A6FF35F2081EEA4
:102D5000021A02EE100A9FED113AB8EE422A20EE56
:102D6000030A486B30EE020AB7EE002AC0F3462091
:102D700030EE020A013021EE000A01EE100AB8EE30
:102D8000411A80EE010ABCEEC00A10EE100A80BDA6
:102D900020BCBE4B0024744C0024744A000000394F
:102DA000002804BF012070472DE9F04381B040F6B0
:102DB000004740F6F0490446C4F20247C4F2024913
:102DC000F86959F8C81C227800F01808D00601F0FC
:102DD00003062AD5B8F1080F1CD0B8F1180F08BFA8
:102DE000022E17D0E1693868002900F06D8140F4A7
:102DF00080703860FDF724FE054600BF3868800506
:102E00000CD4FDF71DFE401B02284FF00300F5D93E
:102E100058E200BFE069002800F0E480B869216A48
:102E200020F47C1040EA0140B8612078C00719D036
:102E3000B8F1100F12D0B8F1180F08BF032E0DD043
:102E400061683868B1F5A02F60DA002900F0B08120
:102E5000B1F5803F00F0CE819EE100BF60680028A0
:102E600000F0C0802078800777D5B8F1000F21D01E
:102E7000E068B8F1180F08BF012E55D03968002856
:102E800000F06681206921F0180108433860386835
:102E900040F001003860FDF7D3FD05463868800733
:102EA00054D4FDF7CDFD401B02284FF00300F5D9A7
:102EB00008E200BFE068002800F0948039682069CB
:102EC00001F01801814231D0396821F0180108431E
:102ED0003860FFF7CFFE396A48F2CC6201F00F018B
:102EE000C0F60002515C40F2240201F01F0120FAFA
:102EF00001F140F20400C2F200000068C2F20002D8
:102F00001160FDF7D7FD00286CD10FE000F06A8159
:102F1000B1F5A81F40F0408140F480203860386847
:102F200040F4801064E100BF00285BD0FDF788FD0D
:102F3000054600BF3868800708D4FDF781FD401BB7
:102F40000228F7D9032001B0BDE8F0833869616930
:102F500020F4FE0040EA014038612078000745D4A3
:102F6000207840075CD42078800600F17F80A56A35
:102F7000A5B3B8F1180F40F0C98059F8C81C59F82A
:102F8000BC0C012D2ED0E26A01F00303934229D13B
:102F9000C1F30521226B914224D1626B01466FF38C
:102FA0005F21013A91421DD1A16BC0F34622013944
:102FB0008A4217D1E16BC0F3064201398A4211D12E
:102FC000216CC0F30660013988420BD159F8B80C66
:102FD000E16CC0F3CC00884240F0E881002001B0F1
:102FE000BDE8F083012001B0BDE8F083A169D9F804
:102FF0000000002952D040F08060C9F80000FDF7C1
:103000001FFD0546D9F800000001A9D4FDF718FD01
:10301000401B0228F6D9032001B0BDE8F08300BFB1
:103020004FF62446CFF6FF76B859C00712D1B859EB
:1030300040F00100B851FDF703FD0546B859C0073F
:1030400008D1FDF7FDFC401B02284FF00300F5D925
:1030500038E100BFA168D9F80000042946DC002946
:1030600000F0EA80012900F01781D5E0616A386834
:10307000002900F07F8040F480503860FDF7E0FCCC
:10308000054600BF386880043FF571AFFDF7D8FCF6
:10309000401B02284FF00300F4D913E120F08060B8
:1030A000C9F80000FDF7CCFC054600BFD9F80000C8
:1030B00000017FF555AFFDF7C3FC401B02284FF020
:1030C0000300F3D9FEE000BF20F480703860FDF704
:1030D000B7FC0546386880057FF5A7AEFDF7B0FC64
:1030E000401B02284FF00300F4D9EBE0052900F063
:1030F000C780852940F0908040F00400C9F80000A6
:10310000D9F8000040F08000C2E000BF386820F02D
:1031100080703860FDF794FC022D05460CD100BF8D
:103120003868800140F1D280FDF78AFC401B0228FC
:103130004FF00300F4D9C5E03868800140F12881E0
:10314000FDF77EFC401B02284FF00300F4D9B9E0E4
:1031500021F001003860FDF773FC054638688007F0
:103160007FF5FBAEFDF76CFC401B02284FF003001F
:10317000F4D9A7E020F480503860FDF761FC0546E3
:10318000386880047FF5F3AEFDF75AFC401B022837
:103190004FF00300F4D995E020F4803038603868AF
:1031A00020F480203860386820F4801024E000BFCC
:1031B00020F480303860386820F480103860386837
:1031C00020F480203860FDF73BFC0546386880031A
:1031D0007FF548AEFDF734FC401B64284FF0030038
:1031E000F4D96FE040F480203860386820F4801013
:1031F0003860386840F480303860FDF721FC0546BF
:10320000386880033FF52EAEFDF71AFC401B64289A
:103210004FF00300F4D955E020F00100C9F8000098
:10322000D9F8000020F00400C9F80000D9F8000027
:1032300020F0800032E000BF20F00100C9F800005B
:10324000D9F8000020F08000C9F80000D9F800008B
:1032500020F00400C9F80000FDF7F2FB054641F23A
:10326000883600BFD9F8000080077FF57CAEFDF7F7
:10327000E7FB401BB0424FF00300F3D922E000BF50
:1032800040F00400C9F80000D9F8000020F08000E8
:10329000C9F80000D9F8000040F00100C9F80000AA
:1032A000FDF7CEFB054641F2883600BFD9F8000095
:1032B00080073FF558AEFDF7C3FB401BB0424FF00F
:1032C0000300F3D901B0BDE8F08300BF59F8C80C82
:1032D00043F6037104F12C0388430ECB084340EA04
:1032E0000220A16B49F8C80C4FF47E4202EB412149
:1032F000E26B581E4FF4FE0389B203EB02426FF3F8
:103300005F20084402F4FE01226C4FF0FE4303EB01
:103310000262084402F0FE41084449F8BC0C59F826
:10332000C80C20F0100049F8C80CE06CC00049F847
:10333000B80C59F8C80C40F0100049F8C80C59F8FE
:10334000C80C616C20F00C00084349F8C80C59F80F
:10335000C80CA16C20F02000084349F8C80C59F8AB
:10336000C80C40F4803049F8C80C386840F08070D0
:103370003860FDF765FB0446386880013FF52EAEE6
:10338000FDF75EFB001B02284FF00300F4D999E71C
:1033900059F8C80C4FF6FC71CFF6F871084049F89F
:1033A000C80C002001B0BDE8F08300BF59F8C80C7C
:1033B00020F0100049F8C80CFDF742FB0546FDF768
:1033C0003FFBA842FBD0E06CC00049F8B80C59F8AC
:1033D000C80C40F0100049F8C80C002001B0BDE84E
:1033E000F0830000002804BF012070472DE9F0435E
:1033F00081B0016844F6004441F08053C5F20104F5
:103400000022A342826203D1C2680F2A01D949E097
:10341000C268C36B012404EB53130832D20803FBC8
:1034200002F244F60043C4F2010399420AD043F683
:103430000043C5F2000303F58833994204D1082AFA
:1034400030D801E0082A2DD842F6FF73C4F20103F8
:10345000994213DD43F20003C4F2010399421FD0E5
:1034600043F60003C5F20003994219D043F200036A
:10347000C5F20103994213D00CE000BF43F60003EC
:10348000C4F2000399420BD043F60043C4F2000398
:10349000994205D043F60043C5F20003994205D195
:1034A000102A03D9012001B0BDE8F08390F88910FB
:1034B00031B9002180F88810044600F085F82046D4
:1034C000022180F88910D0E90019D0F818800C6822
:1034D000B8F1806F24F001040C608C6804F4F81CCF
:1034E00010D1B9F1000F05D0B9F5800F0AD1846B66
:1034F00074B903E0846BB4F1805F06D10C6844F4C6
:1035000080540C605FEA492402D44FF0010E0FE0B2
:10351000C468072C0AD3D1F800E0066D2EF480753C
:103520002E430E604FF0000E07E000BF4FF0000E7C
:103530000C6824F480740C60C468C669876AC36B25
:1035400046EA0C0637433B4323438568D0E90462CF
:103550008B60D0E90D34476ABEF1000F43EA0703E0
:1035600043EA0403D0E9124743EA0603066A42EA43
:10357000030242EA060242EA070242EA0502836DBA
:1035800042EA0402C76D42EA0302036E42EA0702FE
:1035900042EA030242EA080242EA0902CA600A6DEC
:1035A00022F001020A6505D1CA68436D22F000428B
:1035B0001A43CA600021C0F88C10012180F88910DC
:1035C000002001B0BDE8F08370B5BCB0044602A88D
:1035D00000250830C8213B95CDE93955CDE937554F
:1035E000FCF7BEFF206843F60001C4F200018842E8
:1035F00002D03CB070BD00BF4FF080500290202040
:103600002E9002A80395FEF75DFC002818BFFDF779
:10361000F3F840F68C40C4F20240016940F20044E5
:1036200041F4804101610169C4F2022401F4804146
:1036300001910199016837AD41F002010160016813
:10364000052601F0020101910199016841F0040190
:1036500001600068294600F00400019001980420F0
:103660003790022038900020CDE9390020463B9663
:10367000FDF71CF90620379004F5806029463B963B
:10368000FDF714F93CB070BD2DE9F047D0F800907B
:103690001D46174604460E46FDF7D2F994F88910E8
:1036A00001290DD18046002E4FF0010018BF002FD8
:1036B00002D1BDE8F08700BF94F88800012803D14B
:1036C0000220BDE8F08700BF01210320002284F81A
:1036D000881084F88900C4F88C206666A4F86870A5
:1036E000A4F86A70E266A4F87020A4F87220A068BA
:1036F000A267B0F5C02F2068E26705D1016841F4E8
:103700000061016004E000BFC26861F35242C26020
:1037100041684FF6FF72914339444160016841F0BE
:10372000010101606168B1F5800F03D1016841F4C6
:1037300000710160E168102916D343F2FF71C5F2F0
:10374000000188425CDC43F60001C4F200018842BB
:1037500068D043F60041C4F20001884262D043F2CF
:103760000001C4F201015BE0072900F2A780B4F870
:103770006A00002800F0D4804FF6FE706E1CA0F1A5
:10378000020A471C10E000BF616E51F8042B026270
:1037900050466166B4F86A100844A4F86A00B4F8A8
:1037A0006A00002800F0BC8020684169890709D4BC
:1037B000FDF746F9002EF2D0A0EB0800A842EED3A8
:1037C00050E000BFB4F86A10042902D3E16B41292C
:1037D000DAD2B4F86A1001290AD9E26B616E42B1FB
:1037E00031F8020BA9F820004FF6FE70D1E700BFB8
:1037F000616E097880F82010606E411C3846C8E779
:1038000043F60001C5F2000188420BD043F20001EB
:10381000C5F20101884205D043F60041C5F200011E
:1038200088424BD1B4F86A00002879D0681C0FD1C7
:1038300030E000BF616E51F8042B02626166B4F89B
:103840006A000138A4F86A00B4F86A00002867D05A
:10385000206841698907EDD4FDF7F2F8A0EB080074
:10386000A842F1D3204600F06BFCD4F88C0040F461
:103870008070C4F88C00012084F88900002084F84E
:1038800088000320BDE8F087FDF7DAF8B4F86A0095
:10389000002845D0206841698907F5D5616E51F847
:1038A000042B02626166B4F86A000138A4F86A0069
:1038B000B4F86A000028EDD132E000BFB4F86A0025
:1038C00070B34FF6FE706E1C471C0EE0606E30F851
:1038D000021BA9F8201039466066B4F86A00084453
:1038E000A4F86A00B4F86A00D0B12168486980077A
:1038F00008D4FDF7A5F8002EF4D0A0EB0800A842EC
:10390000F0D3AFE7B4F86A000128DFD9E26B606E4C
:10391000002ADCD050F8042B0A624FF6FE71DBE778
:10392000681C13D020684069000713D4FDF788F89D
:10393000A0EB0800A842F5D3D4F88C0040F020009A
:10394000C4F88C0006E000BFFDF77AF820684069F3
:103950000007F9D5204600F0F3FB012084F8890028
:10396000002084F88800D4F88C00002818BF0120BB
:10397000BDE8F0872DE9F04F81B0D0F80090C66B1C
:103980009A46174604460D46FDF75AF894F88910F2
:1039900001290FD180464FF0010025B1002F18BF3B
:1039A000BAF1000F02D101B0BDE8F08F94F88800A1
:1039B000012803D1022001B0BDE8F08F012084F876
:1039C00088000520002184F88900C4F88C10E7667F
:1039D000A4F872A0A4F870A06566A4F86AA0206894
:1039E000A4F868A0A167E167C168102721F4C0218D
:1039F000C16043F2FF71C5F20001884210DC43F65A
:103A00000002C4F2000290421DD043F60042C4F20C
:103A10000002904217D043F20002C4F201020FE00C
:103A200043F60002C5F2000290420CD043F6004279
:103A3000C5F20002904206D043F20002C5F2010234
:103A4000904218BF082742684FF6FF739A435244CA
:103A50004260026842F0010202606268B2F5800FC3
:103A60004FF0010203D1036843F400730360E3687D
:103A700002EB5612102B17D3884200F39D8043F6B9
:103A80000001C4F200010A9B884200F0A88043F6BE
:103A90000041C4F20001884200F0A18043F200011D
:103AA000C4F2010199E000BF072B0A9B00F20081DC
:103AB0004FF6FF711FFA82F9012003F1010BA1F10A
:103AC000030C012356460FE04FF0000AB3B21FFA71
:103AD0008AF0002B18BF012346EA0A01002818BF0C
:103AE0000120090400F0568121681FFA8AF2DB07E1
:103AF0004D6918BF15F0020312D017FA86F39342EE
:103B00000ED9636E1B7881F82030636E2168013313
:103B10006366B4F86A30013BA4F86A30B4F86A60AE
:103B20004B69C007D0D04869C00724D14A451DD28F
:103B300013F400401AD091F83000E16E0870E06E86
:103B40002168421CE26691F830104170E06E2168F5
:103B5000421CE26691F830104170E06E2168421C10
:103B6000E26691F83010417060460AE0032A13D8EB
:103B700013F4C04010D091F83000E16E08704FF699
:103B8000FF70E16E0131E166B4F872100844A4F8E8
:103B90007200B4F872A099E76546FCF751FFBBF1DB
:103BA000000F07D00A99A0EB08008842AC46FFF44A
:103BB0008DAF69E0AC4689E743F60001C5F200012C
:103BC0000A9B88420BD043F20001C5F201018842F2
:103BD00005D043F60041C5F20001884268D11FFAC2
:103BE00082FBBD08012003F10109012356460FE0C5
:103BF0004FF0000AB3B21FFA8AF0002B18BF01235E
:103C000046EA0A01002818BF0120090400F0C2801A
:103C100021681FFA8AF2DB074F6918BF17F0020309
:103C20000FD015FA86F393420BD9636E53F8047BD9
:103C30000F626366B4F86A30013BA4F86A30B4F8E6
:103C40006A604B69C007D3D04869C00704D15A45A0
:103C500010D213F400400DD0096BE06E0160043007
:103C6000E066B4F872000138A4F87200B4F872A0EB
:103C7000C0E700BFFCF7E4FEB9F1000FBAD00A9923
:103C8000A0EB08008842B5D3204600F059FAD4F8DA
:103C90008C0040F48070C4F88C00012084F8890006
:103CA000002084F88800032001B0BDE8F08F00BF39
:103CB0004FF6FF711FFA82FB7F0801205A1CA1F109
:103CC000010C0123564600920FE000BF4FF0000A9E
:103CD000B3B21FFA8AF0002B18BF012346EA0A018B
:103CE000002818BF0120090454D022681FFA8AF165
:103CF000DB07556918BF15F0020310D017FA86F3D9
:103D00008B420CD9636E33F8026BA9F820606366AE
:103D1000B4F86A30013BA4F86A30B4F86A605369B9
:103D2000C007D3D05069C00716D159450ED213F43D
:103D300000400BD0B9F83010E06E20F8041BB9F841
:103D4000301020F8021C61460DE000BF012913D19C
:103D500013F4005010D000BFB9F83010E06E20F816
:103D6000021B4FF6FF71E066B4F872000844A4F835
:103D70007200B4F872A0ABE76546FCF761FE0099EB
:103D800031B10A99A0EB08008842AC46A0D37BE78A
:103D9000AC469DE70A9D681C14D000BF20684069AE
:103DA000000713D4FCF74CFEA0EB0800A842F5D3A3
:103DB000D4F88C0040F02000C4F88C0006E000BF6E
:103DC000FCF73EFE206840690007F9D5204600F068
:103DD000B7F9012084F88900002084F88800D4F81D
:103DE0008C00002818BF012001B0BDE8F08F000052
:103DF000042888BF7047DFE800F0031B13352D004F
:103E00004EF21000CEF20000016821F004010160C2
:103E100040F6E440C4F20240016821F00C0120E0C9
:103E20004EF21000CEF200000168022206E000BF50
:103E30004EF21000CEF200000168012221F00401D0
:103E4000016040F6E440C4F20240016862F383017D
:103E500007E000BF4EF21000CEF20000016841F012
:103E60000401016070470000411E0020B0EB116F9B
:103E70001CBF012070474EF21002CEF200025160CA
:103E80009060116841F00301116070474EF210001C
:103E9000CEF200000068400744BF0420704740F69F
:103EA000E440C4F20240006800F00C01081FB0FAC0
:103EB00080F04009082908BF0220704710B5D8B12A
:103EC0000446D0F8880028B9002084F884002046F1
:103ED00000F026F82420C4F888002068A16A02684F
:103EE000002922F0010202601CBF204600F0ECF91C
:103EF000204600F013FB08B1012010BD216848687E
:103F000020F490404860886820F02A0088600868A3
:103F100040F0010220460A60BDE8104000F048BAB7
:103F200070470000FEE7000040F22002C2F20002EB
:103F30001268D1E9003CC0E900234B890C22C0E99A
:103F400004320A898989C0F808C081614FF40041B0
:103F5000C1610021C2604162FFF7B0BFFEE700000F
:103F6000FEE700007047000070B540F62C46C4F232
:103F7000024656F82C1C044621F0806046F82C0CB2
:103F8000FCF75EFD054600BF56F82C0C000105D578
:103F9000FCF756FD401B0228F6D958E0306843F67E
:103FA0000371884394E80E00084340EA0220E16868
:103FB00030604FF47E4202EB41212269581E4FF4DB
:103FC000FE0389B203EB02426FF35F20084402F460
:103FD000FE0162694FF0FE4303EB0262084402F007
:103FE000FE41084430613068A16920F00C000843AC
:103FF00030603068E16920F0200008433060606A7A
:1040000031680843306030684FF6F87120F01000D6
:1040100030607069226A884340EAC200706130688B
:1040200040F01000306056F82C0C40F0806046F8EC
:104030002C0CFCF705FD044656F82C0C000144BF7F
:10404000002070BDFCF7FCFC001B0328F4D3032008
:1040500070BD000070B540F63046C4F2024656F816
:10406000301C044621F0805046F8300CFCF7E8FC88
:10407000054600BF56F8300C800005D5FCF7E0FC83
:10408000401B0228F6D958E0306843F60371884394
:1040900094E80E00084340EA0220E16830604FF4E3
:1040A0007E4202EB41212269581E4FF4FE0389B281
:1040B00003EB02426FF35F20084402F4FE016269E1
:1040C0004FF0FE4303EB0262084402F0FE41084455
:1040D00070613068A16920F00C00084330603068DE
:1040E000E16920F0200008433060606A31680843CD
:1040F000306030684FF6F87120F010003060B06921
:10410000226A884340EAC200B061306840F0100083
:10411000306056F8300C40F0805046F8300CFCF718
:104120008FFC044656F8300C800044BF002070BD60
:10413000FCF786FC001B0328F4D3032070BD0000AD
:10414000016840F26F32D1F814C08B6943F0080364
:104150008B618B6943F010038B610B6823F00103C3
:104160000B600B6923EA02020A618A6822F440426A
:104170008A6090F88920042A18BF1CF0200209D018
:10418000D0F88C2042F08002C0F88C208A6942F07E
:1041900020028A6190F88920032A18BF1CF040028F
:1041A0000CD15FEA8C5216D45FEACC5220D40021A5
:1041B000A0F86A10A0F87210704700BFD0F88C20E9
:1041C00042F00402C0F88C208A6942F040028A6101
:1041D0005FEA8C52E8D5D0F88C2042F00102C0F89A
:1041E0008C208A6942F400728A615FEACC52DED583
:1041F000D0F88C2042F00802C0F88C208A6942F482
:1042000080728A610021A0F86A10A0F872107047CD
:1042100070470000FCF71ABC4EF6885CCEF2000C2A
:10422000DCF80010012241F47001CCF8001040F6D7
:104230000041C4F202410A600022CA610A620B68AE
:104240004EF6E320CEF6E2201840086040F28020CF
:10425000C0F201108A62CA620A6348638A63C86353
:104260000A6448648A64086820F4802008600A654B
:104270004FF0006042F21C01C4F202014CF8800CC5
:1042800051F8040C420F062A05D800F06040B0F146
:10429000404F18BF70470868C0070BD042F63B205C
:1042A000C0F6190041F8100C46F67F60C4F65D4078
:1042B00041F8100C086840F002000860086840F0FF
:1042C0000100086070470000816A0A070CD4CA0721
:1042D00015D18A071ED44A0727D4CA0630D48A06C5
:1042E00039D44A0642D457E00268D0F838C053683F
:1042F00023F4004343EA0C035360CA07E9D0026881
:10430000D0F82CC0536823F4003343EA0C03536005
:104310008A07E0D50268D0F830C0536823F48033B0
:1043200043EA0C0353604A07D7D50268D0F834C07B
:10433000536823F4802343EA0C035360CA06CED5A6
:104340000268D0F83CC0936823F4805343EA0C031E
:1043500093608A06C5D50268D0F840C0936823F4FC
:10436000005343EA0C0393604A0615D5D0F800C009
:10437000436CDCF80420B3F5801F22F4801242EA7B
:104380000302CCF8042007D1DCF80420836C22F46B
:10439000C0021A43CCF80420090658BF70470168D0
:1043A000C06C4A6822F40022104348607047000045
:1043B000B0B582B004460020C4F89000FCF740FB82
:1043C000216805460A68120737D56FF07E4C2046F3
:1043D0004FF4001100222B46CDF800C000F0BCF9CC
:1043E00050B300BF206850E8000F216820F0800023
:1043F00041E80002DAB1206850E8000F216820F09F
:10440000800041E8000292B1206850E8000F216866
:1044100020F0800041E800024AB1206850E8000F17
:10442000216820F0800041E80002002ADAD1032050
:10443000202188226BE000BF2168086840075DD515
:104440006FF07E4C20464FF4800100222B46CDF8C1
:1044500000C000F081F9002850D000BF206850E86B
:10446000000F216820F4907041E80002BAB3206880
:1044700050E8000F216820F4907041E8000272B308
:10448000206850E8000F216820F4907041E8000295
:104490002AB3206850E8000F216820F4907041E8AA
:1044A0000002002ADAD11AE0206850E8020F2168E1
:1044B00020F0010041E80202DAB1206850E8020F62
:1044C000216820F0010041E8020292B1206850E822
:1044D000020F216820F0010041E802024AB1206881
:1044E00050E8020F216820F0010041E80202002A92
:1044F000DAD1032020218C2209E000BF2020C4F85B
:104500008800C4F88C00002170220020E166A150D0
:10451000002184F8841002B0B0BD000070B50446DC
:104520002269D4E90213006811436269E6690568EB
:10453000114346F6F312CCF6FF722A401143314381
:10454000016041684FF2FF4521F440511943416039
:1045500042F20041A26940F08053C5F200418B4213
:104560001CBF236A1A438368C1F2FF152B401A430C
:104570008260C26A636A22F00F021A4346F2FF3376
:10458000C4F200039842C2621ADC44F6FF31C4F25E
:104590000001884230DC44F20041C4F2000188424C
:1045A00050D044F60001C4F20001884240F0CC80B3
:1045B00004200021FCF730FFB6F5004F67D048E03B
:1045C00042F2FF32C4F2004290422BDC46F200413C
:1045D000C4F20001884253D043F60001C4F2010145
:1045E000884240F0B18001200021FCF715FFB6F5AC
:1045F000004F4CD02DE000BF44F60041C4F2000152
:10460000884263D045F20001C4F20001884240F0C4
:104610009B8010200021FCF7FFFEB6F5004F36D03E
:1046200017E000BF42F20042C4F20042904255D06F
:10463000884240F0898000200021FCF7EDFE002830
:1046400052D177E002200021FCF7E6FEB6F5004FDC
:104650001DD000286ED0616A48F2E462C0F6000204
:1046600032F811106268B0FBF1F000EB5200B0FBC1
:10467000F2F04FF6EF72A0F1100191425CD857E0D2
:1046800020200021FCF7C8FEB6F5004FE1D100283C
:1046900050D0616A48F2E462C0F6000232F81110AC
:1046A0006268B0FBF1F0510801EB4000B0FBF2F0A2
:1046B0004FF6EF72A0F1100191423DD84FF6F07124
:1046C000C0F342020840104432E000BF082000213D
:1046D000FCF7A2FEB6F5004FBBD1D8E74FF48050EF
:1046E0000021FCF799FE28B3616A48F2E462C0F643
:1046F000000232F811106268B0FBF1F102EB4200E7
:1047000081424FF0010018D31303994215D80802D3
:104710000B0E10EB520043F100010023FBF722FEC9
:104720004FF60052A0F54071C0F20F02914203D241
:104730002168C860002000E001204FF00111A1664F
:104740000021C4E91D1170BD00200021FCF764FEAA
:10475000B6F5004F9BD07CE72DE9F041804600681C
:104760001546C2690E461140891BB1FA81F149090B
:10477000A94223D1069C2CB3611C29D1C1693140C7
:10478000891BB1FA81F14909A94217D1C1693140A8
:10479000891BB1FA81F14909A9420FD1C1693140A0
:1047A000891BB1FA81F14909A94207D1C169314098
:1047B000891BB1FA81F14909A942DFD00020BDE887
:1047C000F08100BFFCF73CF90320BDE8F08100BF99
:1047D0001F4607E0C0693040801BB0FA80F04009F6
:1047E000A842EBD1FCF72CF9C01BA04284BF0320E8
:1047F000BDE8F081D8F8000001684907EAD5402EED
:1048000018BF802EE6D0C169090700F1A180C169F7
:104810000905DFD54FF400610162D8F8000050E8C7
:10482000000FD8F8001020F4907041E800020AB39D
:10483000D8F8000050E8000FD8F8001020F490706D
:1048400041E80002B2B1D8F8000050E8000FD8F8F3
:10485000001020F4907041E800025AB1D8F800002E
:1048600050E8000FD8F8001020F4907041E80002E2
:10487000002AD2D14FF6FE70CEF6FF70D8F80010A5
:1048800051E8021FD8F80020014042E80213F3B1BA
:10489000D8F8001051E8021FD8F80020014042E883
:1048A0000213A3B1D8F8001051E8021FD8F8002075
:1048B000014042E8021353B1D8F8001051E8021F3A
:1048C000D8F80020014042E80213002BD6D1D8F8D6
:1048D0006C0001282CD1D8F8000050E8000FD8F85F
:1048E000001020F0100041E800020AB3D8F80000E0
:1048F00050E8000FD8F8001020F0100041E8000246
:10490000B2B1D8F8000050E8000FD8F8001020F03D
:10491000100041E800025AB1D8F8000050E8000F3A
:10492000D8F8001020F0100041E80002002AD2D18F
:1049300020200021C8F88C00C8F86C10C8F874104A
:10494000C8F89000032088F88410BDE8F08100BF0B
:1049500008210162D8F8000050E8000FD8F80010D4
:1049600020F4907041E800020AB3D8F8000050E843
:10497000000FD8F8001020F4907041E80002B2B1A6
:10498000D8F8000050E8000FD8F8001020F490701C
:1049900041E800025AB1D8F8000050E8000FD8F8FA
:1049A000001020F4907041E80002002AD2D14FF6A6
:1049B000FE70CEF6FF70D8F8001051E8021FD8F84C
:1049C0000020014042E80213F3B1D8F8001051E88A
:1049D000021FD8F80020014042E80213A3B1D8F822
:1049E000001051E8021FD8F80020014042E80213ED
:1049F00053B1D8F8001051E8021FD8F80020014048
:104A000042E80213002BD6D1D8F86C0001282CD133
:104A1000D8F8000050E8000FD8F8001020F010007F
:104A200041E800020AB3D8F8000050E8000FD8F8B7
:104A3000001020F0100041E80002B2B1D8F80000E8
:104A400050E8000FD8F8001020F0100041E80002F4
:104A50005AB1D8F8000050E8000FD8F8001020F044
:104A6000100041E80002002AD2D12020C8F88C00B2
:104A700000200821C8F86C00C8F87400C8F890102D
:104A800088F884000120BDE8F0810000002804BF00
:104A900001207047016C21F000410164016C41F07C
:104AA000010101640021416400207047002000F0F2
:104AB00069BE00000146806D20F4004200208A6536
:104AC00070470000014601200864086C002220F0B5
:104AD00001000864086C20F00040086400204A646B
:104AE000704700000146006C4BF6807220EA02021B
:104AF00000200A6470470000012909D000291CBF6A
:104B000001207047016C21F00041016400207047D2
:104B1000016C41F00041016400207047FEE7000095
:104B200080B54FF0010C01233E2A84BF1F234FF0B4
:104B3000050C134423FA0CFCC0005FFA8CF300EB65
:104B4000810046F200414FF0FF3E3E2A88BF5EFAE8
:104B50008CF34FEA8322C4F201014FF4004C88BF6A
:104B60004CEA8322435812049BB208BF4FF0004224
:104B70001A44425080BD00002DE9F04140F230154A
:104B8000C2F200056978FF291CD048F2FC6804468F
:104B90000026C0F6000800270DE000BF40462BD1DC
:104BA000C1682046884769780137481CC0B28742EF
:104BB00006F1240606D2C8B28742EFD2A868D8B15F
:104BC0003044EDE705F10C003721FBF7C9FC4FF04D
:104BD000FF30C5F82F00C5F82B00C5F82700C5F831
:104BE0002300C5F81F00C5F81B00C5F81700C5F85D
:104BF0001300BDE8F08100BF4EF6F050CEF2000089
:104C00000068C00708BFBDE8F08100BEBDE8F081C4
:104C10000878400604D0002001210822FFF780BF59
:104C200048780528F7D14888012161F3DF1046F262
:104C30004C01C4F201010860002001210822FFF7A5
:104C40006FBF000070B540F2647301F00F001022D6
:104C5000C2F20003082402EAD10203EB40104EB274
:104C600024EA111110440B1D0325807B46F2000C31
:104C700005FA03F306310125C4F2010C05FA01F12E
:104C80005CF82020194448F68F7348F2800EC0F279
:104C9000FF7342EA0E04194302F4C0622023B6F106
:104CA000FF3FC8BF4FF400532140B2F5806F18BFDB
:104CB00059404EF20812CEF200024FF48063C2F85F
:104CC0008030BFF34F8FBFF36F8F4CF82010BFF3CE
:104CD0004F8FBFF36F8F136070BD000080B54EF231
:104CE000081CCEF2000C4FF4806ECCF880E046F247
:104CF000040240F20C10BFF34F8FC4F201020023F4
:104D0000C2F200004FF6FF71BFF36F8F1360C0F85F
:104D100006105360C0F80A109360C0F80E10D360FC
:104D2000C0F812101361C0F816105361C0F81A10C1
:104D30009361C0F81E10BFF34F8FBFF36F8FCCF895
:104D400000E0C021018080BD2DE9F04F81B08D7859
:104D5000C8780E468C8800F00301284600F084F9DC
:104D6000082819D246F20008C4F2010858F82010A9
:104D700047F27002CFF600026FB21140F27807F0EE
:104D80000F0602F00302022A314411D0032A75D122
:104D9000824648F280600EE04EF6F050CEF20000FF
:104DA0000068C00700D000BE002001B0BDE8F08F51
:104DB000824648F280006FF3DF2441EA00090DF1DA
:104DC00003010DF1020220464FEAD51B01F01CFB46
:104DD00040F20C12C2F200021188084483B2108023
:104DE000B3F5006F504609D94EF6F051CEF20001EE
:104DF0000968C9074FF6FF7100D000BE08EBC0027A
:104E00008BF0010302EB83024FF6FF75D2F80034FA
:104E100021F00301AB4340F26475C2F2000505EBDB
:104E20004616194406EB0B13C2F8001420219C818E
:104E30009873B7F1FF3FC8BF4FF400516FF0700295
:104E400081EA0901002F48BF6FF4E04211404EF2A1
:104E50000812CEF200024FF48063C2F88030BFF334
:104E60004F8FBFF36F8F48F82010BFF34F8FBFF302
:104E70006F8F1360012001B0BDE8F08F4EF6F05047
:104E8000CEF200000068C0078ED000BE002001B046
:104E9000BDE8F08F80B540F2647001F00F0C102275
:104EA000C2F2000002EAD10300EB4C1049B21844F0
:104EB000807B46F2000CC4F2010C5CF82030B1F1AA
:104EC000FF3F48F6BF7148F2800EC0F2FF7143EA1F
:104ED0000E03C4BF4BF68F71C0F2FF7101EA0301EC
:104EE000C8BF4FF4805251404EF20812CEF2000279
:104EF0004FF48063C2F88030BFF34F8FBFF36F8FE2
:104F00004CF82010BFF34F8FBFF36F8F136080BD3D
:104F1000F0B581B040F2647601F00F001027C2F2C4
:104F2000000607EAD10706EB401649B2F019847B68
:104F3000F2510022B1F1FF3F42600381428137DD2F
:104F400046F20006C4F2010656F82410858943F69D
:104F50000F72AB4238BF1D4601F4C060C0F2FF7251
:104F6000B0F5806F01EA020704D1204600212A46ED
:104F7000FFF7D6FD204601212A46FFF7D1FD4EF26C
:104F80000811CEF200014FF480624BF28000C1F8AC
:104F900080207840BFF34F8FBFF36F8F46F8240017
:104FA000BFF34F8FBFF36F8F0A60012001B0F0BDD8
:104FB000214600F0BFFD012001B0F0BDF0B581B089
:104FC00040F2647601F00F001027C2F2000607EAF3
:104FD000D10706EB401649B2F019847B0025B1F1E8
:104FE000FF3FF55142600381458137DD46F20006FF
:104FF000C4F2010656F82410858943F60F72AB42BD
:1050000038BF1D4601F4C060C0F2FF72B0F5806F7A
:1050100001EA020704D1204600212A46FFF780FD5D
:10502000204601212A46FFF77BFD4EF20811CEF201
:1050300000014FF480624BF28000C1F8802078407C
:10504000BFF34F8FBFF36F8F46F82400BFF34F8F2E
:10505000BFF36F8F0A60012001B0F0BD214600F060
:1050600069FD012001B0F0BD70B540F20C13C2F231
:10507000000303EBD01600F00F02347901294FEA48
:10508000D01C0BD1012686EAD01E7CB1D87801282D
:105090001ED1987890421BD1002070BD34B3D878CF
:1050A000884231D198789042F6D02DE003EB0E0083
:1050B000007968B99878FF2818BF904208D1DC7849
:1050C0009E1C012C4FF0000018BFFF2C00F0A481A3
:1050D00003EB0C05287A28B3D879012834D19879C4
:1050E000904204BF012070BD2EE000BF9878FF28D9
:1050F00018BF904208D1DD789E1CFF2D4FF00000B4
:1051000018BF8D4200F0888103EB0C05287A002837
:1051100044D0D87988424FD19879904204BF012079
:1051200070BD49E003EB0E00007A68B99879FF285A
:1051300018BF904208D1DC799E1D012C4FF0010070
:1051400018BFFF2C00F06881287B48B1D87A01286D
:1051500019D1987A904204BF022070BD13E000BFBD
:1051600003EB0E00007B70B9987AFF2818BF9042BD
:1051700009D1DC7A03F10A06012C4FF0020018BFB6
:10518000FF2C00F04981287C10B3D87B012832D154
:10519000987B904204BF032070BD2CE09879FF28D3
:1051A00018BF904208D1DC799E1DFF2C4FF0010002
:1051B00018BF8C4200F03081287B002844D0D87A78
:1051C000884250D1987A904204BF022070BD4AE0D4
:1051D00003EB0E00007C70B9987BFF2818BF90424B
:1051E00009D1DC7B03F10E06012C4FF0030018BF40
:1051F000FF2C00F01181287D40B1D87C012818D106
:10520000987C904204BF042070BD12E003EB0E00B6
:10521000007D70B9987CFF2818BF904209D1DC7CD2
:1052200003F11206012C4FF0040018BFFF2C00F010
:10523000F380287E20B3D87D012834D1987D904218
:1052400004BF052070BD2EE0987AFF2818BF904259
:1052500009D1DC7A03F10A06FF2C4FF0020018BFD7
:105260008C4200F0D980287C00285FD0D87B88420F
:105270006AD1987B904204BF032070BD64E000BFF8
:1052800003EB0E00007E70B9987DFF2818BF904296
:1052900009D1DC7D03F11606012C4FF0050018BF83
:1052A000FF2C00F0B980287F40B1D87E012818D1AA
:1052B000987E904204BF062070BD12E003EB0E0002
:1052C000007F70B9987EFF2818BF904209D1DC7E1C
:1052D00003F11A06012C4FF0060018BFFF2C00F056
:1052E0009B8095F8200048B1D87F012840F09C8031
:1052F000987F904204BF072070BD95E003EB0E003D
:1053000090F82000002840F08F80987FFF2818BF79
:10531000904240F08980DD7F03F11E06012D4FF0A1
:10532000070079D0FF2D77D07EE000BF987BFF2863
:1053300018BF904208D1DC7B03F10E06FF2C4FF022
:10534000030018BF8C4267D0287D48B1D87C8842C2
:1053500014D1987C904204BF042070BD0EE000BFC1
:10536000987CFF2818BF904208D1DC7C03F112061C
:10537000FF2C4FF0040018BF8C424DD0287E48B15E
:10538000D87D884214D1987D904204BF052070BD1D
:105390000EE000BF987DFF2818BF904208D1DC7D49
:1053A00003F11606FF2C4FF0050018BF8C4233D0D6
:1053B000287F48B1D87E884214D1987E904204BF9D
:1053C000062070BD0EE000BF987EFF2818BF9042F7
:1053D00008D1DC7E03F11A06FF2C4FF0060018BF3F
:1053E0008C4219D095F8200040B1D87F88421BD15B
:1053F000987F904204BF072070BD15E0987FFF287A
:1054000018BF904210D1DD7F03F11E06FF2D4FF033
:10541000070018BF8D4207D106EB0C037170012104
:105420003270997070BD00BF4EF6F050CEF20000A1
:105430000068C0073FF430AE00BE002070BD000021
:105440002DE9F04383B005464078884602380528A8
:1054500000F20B81DFE800F0042E16220E8400BF5C
:1054600040F23010C2F20000002101734173017458
:105470008173FAE040F23010C2F20000017801318D
:105480000170F2E040F23010C2F20000017B00290E
:1054900000F0238101218173E7E000BF40F230106A
:1054A000C2F20000017B002900F017810021817306
:1054B000DBE000BF40F23019C2F2000999F80100A8
:1054C000FF2823D048F2FC640026C0F60004002721
:1054D00007E000BF411C0137C9B28F4206F1240624
:1054E00014D2C1B28F4205D2D9F808100029F1D0E8
:1054F000314401E02146EDD10A6A002AEAD0287839
:105500006968904799F80100E4E700BF99F80E0038
:1055100000285ED0002089F80E002978D9F80440D0
:105520008DF800100521B8F1000F8DF801100290E0
:10553000019033D040F20800C2F20000028904F169
:1055400008006946002301F0DDFD0646CEB39DF854
:1055500000009DF80110424602F0B6F939E000BFA4
:10556000297911F00F0000F0808040F23013C2F270
:10557000000303EB40005F7800EBD11292F8232088
:10558000974251D99B68002B6FD002EBC20203EB0C
:105590008202D369002B4ED167E000BF40F20806BB
:1055A000C2F2000671688847328904F10800694632
:1055B000002301F0A7FD7168064601208847002EF0
:1055C000C5D14EF6F050CEF200000068C00700D002
:1055D00000BE99F81200C00700F07F802878D9F843
:1055E00004408DF8000003208DF801006868B8F1D0
:1055F000000F019078D040F20800C2F2000002894A
:1056000004F108006946002301F07CFD0546002DE9
:1056100000F07F809DF800009DF80110424602F0E6
:1056200053F903B0BDE8F0831FD148F2FC62C0F625
:105630000002D369CBB1CB09C41814F8330F00F0C2
:10564000FE002070207800F0FB002070D7692878D9
:105650006A79AB68B84700283FD1207840F0010054
:105660002070207840F00400207040F23010C2F228
:1056700000004468B8F1000F14D040F20800C2F2F4
:105680000000028904F108002946002301F03AFDD8
:105690000646DEB128786978424603B0BDE8F0439B
:1056A00002F012B940F20806C2F20006716800204A
:1056B0008847328904F108002946002301F022FDC1
:1056C0007168064601208847002EE3D14EF6F0505F
:1056D000CEF200000068C00702D103B0BDE8F0833D
:1056E00000BE03B0BDE8F08340F20805C2F2000539
:1056F0006968002088472A8904F108006946002368
:1057000001F000FD6968054601208847002D7FF4FF
:1057100081AF4EF6F050CEF200000068C007DCD03A
:1057200000BE03B0BDE8F08310B500F06BFA46F29E
:105730004004C4F2010400202060206840F45D4071
:10574000206000F0AFFAA06940F400410120A1619F
:1057500010BD00004EF28810CEF200004FF48061C0
:105760000160BFF34F8FBFF36F8F7047BFF34F8F51
:105770004EF20810BFF36F8FCEF200004FF480613D
:10578000016070472DE9F04F89B046F24005C4F240
:1057900001056C68A0050ED56FF400706860A868FC
:1057A0004FF440716FF3DF20ADF81810079006A892
:1057B0000121FFF745FE60050AD4E0041CD4200552
:1057C0002FD4E00542D401946868000453D563E007
:1057D0006FF48060686000F065FA4FF48070ADF897
:1057E000180000208DF81C0006A80121FFF728FEF4
:1057F00009B0BDE8F08F00BF2868012120F0040047
:105800002860286820F0080028606FF480506860E5
:105810004FF4A060ADF8180006A8FFF711FE2005B0
:10582000CFD52868012140F008002860286840F0A2
:10583000040028606FF4006068604FF48060ADF889
:10584000180006A8FFF7FCFDE005BCD540F25C702F
:10585000C2F20000017839B1012903D12A6822F08F
:1058600010022A60013901706FF480706860019441
:105870006868000410D4019840040AD54EF6F05030
:10588000CEF200000068C00700D000BE6FF4804078
:10589000686009B0BDE8F08F40F60F79A5F14004CB
:1058A0004FF0140805F57070C0F2FF79029012E015
:1058B00001F180004FF4E0618DF81C000020ADF88C
:1058C00018108DF81D0006A801210892FFF7B8FDF9
:1058D00068680004CFD5686800F00F0654F826A069
:1058E0005FEA0A4040F1D480CDF80C800398A0B163
:1058F000039801380390039878B103980138039016
:10590000039850B1039801380390039828B1039885
:105910000138039003980028EAD15FEA0A502FD497
:1059200054F8260040F2647700EA090040F0800055
:1059300044F8260054F826B0029B0BF00F090BF434
:105940008C4003EBC601C2F20007B0F5884007EBBC
:10595000491818BF012051F8202051F82010D8F81C
:105960000400C2F3094713FA81F100283CD0002259
:105970000792042206923A4606AB01F0C3FB3EE0D2
:10598000029A002302EBC60041684068C1F3094750
:1059900012FA80F004A93A4601F0E2FD54F826001C
:1059A000082F00EA090040F0800044F826000DD1DD
:1059B0004FF4C060ADF81800DDE90410CDE9071020
:1059C00006A80121FFF73CFD62E000BF4EF6F05053
:1059D000CEF200000068C00700D000BE0020012108
:1059E0000822FFF79DF853E0D8F80000B8F80A2025
:1059F00000230244084611463A4601F0B1FDB8F8CA
:105A00000A00B8F80C2038449742A8F80A0023D3BB
:105A1000B8F8081083B299421ED90BF4C063B3F5ED
:105A2000806F08D0081A80B20121904238BF024628
:105A30003046FFF775F840F60F79C0F2FF7909F5A7
:105A4000405000EA0B004BF2800148404FF0140830
:105A500044F826001CE000BF30460121FFF760F843
:105A6000B8F80A004FF4E061ADF81810089000276C
:105A700006A801218DF81C908DF81D70FFF7E0FC41
:105A800040F60F79C8F808704FF01408C0F2FF799B
:105A90005FEA0A607FF51CAF54F8260000EA0900AF
:105AA00040F4004044F8260054F8262040F2647088
:105AB00002F00F01C2F2000000EB411002F4C063DB
:105AC000B3F5806F00F1100012D1C37B002B3FF4BF
:105AD000FFAE012323EA921205EBC60303EB820219
